:020000040800F2
:10000000C0070020C50100081127000809270008C3
:100010000D27000865050008C52C00080000000039
:100020000000000000000000000000001927000888
:10003000690500080000000015270008BD2B000816
:10004000DF010008DF010008DF010008DF01000810
:10005000DF010008DF010008F1050008DF010008EA
:10006000DF010008DF010008DF010008DF010008F0
:10007000DF010008DF010008DF010008DF010008E0
:10008000DF010008DF010008DF01000800000000B8
:10009000000000000000000000000000DF01000878
:1000A000DF010008DF010008DF010008DF010008B0
:1000B000C52B0008D12B0008DF010008DF01000874
:1000C000DF010008DF010008DF010008DF01000890
:1000D000DF010008DF010008DF010008DF01000880
:1000E000F9050008DF010008DF010008000000003A
:1000F0000000000000000000000000000000000000
:1001000000000000000000000000000000000000EF
:100110000000000000000000DF010008DF0100080F
:1001200000F002F800F03FF80AA090E8000C8244CA
:100130008344AAF10107DA4501D100F034F8AFF2A7
:10014000090EBAE80F0013F0010F18BFFB1A43F0B5
:1001500001031847FC4100001C420000103A24BF74
:1001600078C878C1FAD8520724BF30C830C144BF1C
:1001700004680C607047000000230024002500265E
:10018000103A28BF78C1FBD8520728BF30C148BFFA
:100190000B607047642900F07D80002070471FB518
:1001A0001FBD10B510BD00F0A2F91146FFF7F7FF13
:1001B00003F04EF800F0C0F903B4FFF7F2FF03BC00
:1001C00000F0C8F90948804709480047FEE7FEE704
:1001D000FEE7FEE7FEE7FEE7FEE7FEE7FEE7FEE7F7
:1001E00004480549054A064B70470000C12B00082A
:1001F00021010008C0010020C0070020C00300202A
:10020000C00300200FB41CB5074B06AA7B44694607
:100210000090059800F053F90020694600F062F95B
:100220001CBC5DF814FB0000D50200002DE9F04174
:100230000E460446002020622046E168884730B31D
:10024000252805D0D4E901219047206A401CF2E717
:10025000E168204600278847050018D0A5F1410035
:10026000192802D820354FF4006732462946204627
:100270002760FFF78FFF40B1012804D0F61D26F05C
:1002800007060836D8E7361DD6E72846DAE7206A9B
:10029000BDE8F0812DE9F04106460024106875297B
:1002A000314616A510D0AFF30080002802DA404294
:1002B00013A507E031688A0701D512A502E04907B6
:1002C00004D511A5012401E0AFF3008000210A222A
:1002D00006F1240709E0B0FBF2FCB0FBF2F302FBED
:1002E0001C00303078541846491C0028F3D12346AE
:1002F0002A463046BDE8F04100F083B80000000017
:100300002D0000002B0000002000000010B5431C51
:1003100002E010F8011B71B18107FAD14FF00132F0
:1003200002C88C1A8C4314EAC211F9D0C01A0A060A
:1003300003D0C01E10BDC01A10BD0A0401D0801E1B
:1003400010BD0902FCD0401E10BD10B5203AC0F00F
:100350000B80B1E81850A0E81850B1E81850A0E898
:100360001850203ABFF4F5AF5FEA027C24BFB1E831
:100370001850A0E8185044BF18C918C0BDE8104074
:100380005FEA827C24BF51F8043B40F8043B08BF7D
:100390007047D20728BF31F8023B48BF11F8012B44
:1003A00028BF20F8023B48BF00F8012B70474FF0F0
:1003B000000200B5134694469646203922BFA0E8B5
:1003C0000C50A0E80C50B1F12001BFF4F7AF0907C1
:1003D00028BFA0E80C5048BF0CC05DF804EB8900B2
:1003E00028BF40F8042B08BF704748BF20F8022BF5
:1003F00011F0804F18BF00F8012B7047704770470D
:1004000070472DE9F0470D4699469246044600F1A3
:1004100024080168880604D5E06921F010012160F4
:1004200000E00120A84201DD471B00E00027A16990
:100430007A1902EB0900081AA0612078C00602D4DC
:100440002046AFF30080002608E0D4E901211AF825
:1004500006009047206A401C761C20624E45F4DB63
:100460002078C0060AD52046AFF3008006E0D4E924
:10047000012130209047206A401C2062381EA7F1DD
:100480000107F4DC07E0D4E9012118F805009047E2
:10049000206A401C2062281EA5F10105F3DC2046DD
:1004A000AFF300802078000602D50220BDE8F08777
:1004B0000120FBE701694A1C02610878704700B51A
:1004C0008FB0CDE901310021059105497944CDE98D
:1004D000031011466846FFF7A9FE0FB000BD0000EB
:1004E000E5FFFFFF0A6802F8010B0A6070477546D6
:1004F00000F02CF8AE4605006946534620F0070090
:10050000854618B020B5FFF76BFEBDE820404FF0E0
:1005100000064FF000074FF000084FF0000BAC460C
:10052000ACE8C009ACE8C009ACE8C009ACE8C00957
:1005300021F007018D46704710B50446AFF30080E7
:100540002046BDE81040FFF737BE00000048704766
:100550001000002001491820ABBEFEE72600020073
:1005600070470000FEE70000704700002DE9F041F1
:1005700082B04EF21005CEF20005286800F03EFC75
:100580006968AA684F1CB91A00912968C90301D487
:10059000804605E000F032FCA9688046781A009099
:1005A00000984FF47A767043B0FBF7F70BE000BF8A
:1005B0000199A0EB08007143B1FBF4F1C91B00FBEA
:1005C0000610642810D2286800F018FC6968AA6830
:1005D0004C1CA11A01912968C903E9D500F00EFC51
:1005E000A968611A0191E3E702B0BDE8F08100005B
:1005F000012000F0D5BA000080B54FF4006000F093
:10060000CFFA4FF4805000F0CBFA4FF40040BDE831
:10061000804000F0C5BA000010B582B040F2B814B6
:10062000C2F200042078012802D102F00BFA2078EF
:10063000022808BF02F082F941F21C00C4F2020055
:10064000016847F2000441F0805101600168C4F282
:10065000000401F08051009100996168890703D579
:10066000216841F00C012160016841F08051016076
:10067000006800F08050019001984FF4807000F005
:100680006BFC206840F0040020604FF4807000F0A4
:1006900075FC02B0BDE8104000F07CBC70B542F2C1
:1006A0000C060446C4F2020600F0A8FB3168C90734
:1006B00018D13068800644BF202030603068C00602
:1006C00007D43069C00704D1306840075CBF002000
:1006D00070BD3068C00623D40020316849072BD490
:1006E00034E000BF002C47D00546601C0ED13068B6
:1006F000C007DED03068C0071CBF30685FEAC0703A
:10070000D7D03068C007F2D1D3E700BF00F076FB46
:10071000401BA04230D83068C007F7D1C9E700BFFE
:1007200040F29810C2F20000C16941F00201C161BB
:1007300010203168490709D540F29811C2F2000132
:10074000CA6940F0040042F00102CA613169C90778
:1007500002D13060012070BD40F29811C2F2000158
:10076000CA6942F00402CA61316921F001013161B4
:100770003060012070BD00BF032070BD70B582B035
:1007800014460D46064600F019F940F2F000C2F298
:10079000000000210160012101EB1421C0E9026188
:1007A00001A900F02DF818B100F0A2F802B070BD58
:1007B0006CB100BF2A6802203146002300F0A8F87F
:1007C0000028F1D10436013C05F10405F2D100F016
:1007D00095F8002002B070BDB0B5044600F00EFBE5
:1007E000054640F20000C2F200000078611C18BF0C
:1007F000044400BF00F002FB401BA042FAD3B0BD8E
:100800002DE9F04381B040F29816C2F20006327E24
:10081000012A03D1022001B0BDE8F0830546012082
:100820002C6830764CF250308846FFF737FF022CA8
:100830001CD100284ED1002042F21004F061C4F215
:100840000204206840F004002060206840F040006E
:1008500020604CF25030FFF721FF216821F00401A5
:1008600021600021317601B0BDE8F08390BB4FF0EC
:10087000FF30C8F80000D5E9027007EB80208742FE
:1008800028D242F21004C4F202044FF0000900BF63
:10089000C6F81C90206840F0020020606760206865
:1008A00040F0400020604CF25030FFF7F7FE216826
:1008B00021F00201216098B9D5E9020107F58067AE
:1008C00000EB81208742E3D300200021317601B084
:1008D000BDE8F08301200021317601B0BDE8F0834E
:1008E000C8F800700021317601B0BDE8F083000047
:1008F00040F29810C2F20000C069704742F2100145
:10090000C4F20201086840F0800200200A607047CB
:100910002DE9F04F81B040F29819C2F200099246D9
:1009200099F81820012A03D1022001B0BDE8F08F08
:100930008046012089F818004CF250309B460E4644
:10094000FFF7ACFEA0BB404642F21007B8F1020F21
:1009500018BF0420C4F20207B8F1010F08BF4046D7
:1009600045424FF000080024C4F12001C9F81C8062
:100970002AFA04F00BFA01F13A680843B4F12001B5
:1009800058BF2BFA01F042F00101396026F8020B42
:100990004CF25030FFF782FE3968013521F0010238
:1009A00048F100013A6018B9002904F11004DBD0C5
:1009B000002189F8181001B0BDE8F08F42F2040060
:1009C000C4F20200C16809065CBF0020704740F213
:1009D0002311C4F26751016048F6AB11CCF6EF5118
:1009E0000160C068C0B2C00970470000B0B590B0E7
:1009F000044640F28800C2F2000048A11B224FF0DA
:100A0000FF3301F00BFC40F27005C2F200052878BC
:100A1000F0B140F2B810C2F200002A78037844F234
:100A20002C310DF10504C0F600012046FFF7EAFB6A
:100A30002046FFF76BFC82B240F28800C2F2000051
:100A400021464FF0FF3301F0E9FB10B0B0BD00BF0D
:100A5000B4F5805F12DA012C26D0B4F5006FD8D13E
:100A60000120287040F28800C2F200003CA11F2241
:100A70004FF0FF3301F0D2FBCBE700BFB4F5004FDE
:100A80003ED0B4F5805FC4D10220287040F28800C7
:100A900044F20D21C2F20000C0F600011F224FF007
:100AA000FF3301F0BBFBB4E740F60000C4F20100E5
:100AB000012100F08FF902F06BF90028A9D102F0B2
:100AC00007FA044640F28800C2F200001AA115227B
:100AD0004FF0FF3301F0A2FB4CF23F00C0F2F700F1
:100AE000844296D140F28800C2F2000018A10E2282
:100AF0004FF0FF3301F092FB0420287089E700BF1C
:100B00000320287040F28800C2F200001CA11F22BE
:100B10004FF0FF3301F082FB7BE700BF6861766531
:100B200020696E746572727570742D6576656E7469
:100B300020202020202020002D2D2D2D2D2D2D2D6D
:100B40002D2D2D2D2D2D2D2D2D2D2D2D2D0000005C
:100B50006765745F726573756C745F69720000001D
:100B6000696E746572727570742D7265636F7264EC
:100B70005F7072657373203D20312020202020009B
:100B8000696E746572727570742D706C61795F70C6
:100B900072657373203D203120202020202020000A
:100BA00040F21441C4F201010A68024214BF086015
:100BB0007047FFF71BBF00002DE9F04F82B00E68B1
:100BC000002E00F0038140F20C4C41F200424FF63F
:100BD000FF7EC4F2010CC4F20102042700240123A9
:100BE000C1F2100E4FF0000A4FF00009904208BF0A
:100BF0000327009745E000BF012704F00C030F22F4
:100C00009A402BEA020207FA03F34FEA9A051A43C5
:100C100046F82520D1F804B040F20045C4F20105A1
:100C20005FEACB322A6854BF22EA080242EA08028D
:100C30002A606A685FEA8B3354BF22EA080242EAFC
:100C400008026A605FEACB23AA6854BF22EA08025E
:100C500042EA08025FEA8B23AA60DCF800204FF02A
:100C6000010354BF22EA080242EA0802CCF800203D
:100C70000E680AF1010A36FA0AF204F1040400F0DF
:100C8000A58003FA0AF816EA080FF1D04E687645F7
:100C900012DC122E56D8DFE806F0350B45495555C3
:100CA00055555555555555555555554D510000BF40
:100CB000D1F80C9046E000BF4FF6FF72C1F221025E
:100CC00096420FDC0022C1F2110296421AD0002295
:100CD000C1F21202964215D00022C1F221029642C0
:100CE00010D02FE00022C1F2220296420AD0002248
:100CF000C1F23102964205D00022C1F23202964280
:100D000020D100BF8A684AB1012A14BFC0F81480FC
:100D1000C0F810804FF0080914E000BF4FF004093C
:100D200010E000BFCA6802F108090BE04FF00009AB
:100D300008E000BFCA6802F1040903E0CA6802F1D2
:100D40000C0900BF22460646BAF1080F24BF203A1C
:100D5000043637680F25954027EA050509FA02F29F
:100D60002A433260CA79D2067FF582AF41F2180376
:100D7000C4F202031A6842F001021A601A6802F013
:100D800001020192019A40F20042C4F20102A2F56E
:100D90007E762AF0030256F802B040F60002C4F252
:100DA0000102904210D040F60042C4F2010290428B
:100DB0003FF422AF41F20002C4F20102009F9042D0
:100DC00008BF022719E700BF002716E702B0BDE8F9
:100DD000F08F00008068084018BF012070470000B5
:100DE000C26802EA0103914341EA0341016170478D
:100DF000002A08BF090401617047000040F2BC10DE
:100E0000C2F200000068704740F2000040F2BC11DE
:100E1000C2F20000C2F2000100780A6810440860C3
:100E20007047000080B5032000F086F80F2000F026
:100E300005F800F027F8002080BD000070B540F2F2
:100E40000006C2F2000640F208013278C2F2000148
:100E50004FF47A730968B3FBF2F20446B1FBF2F186
:100E6000084600F05FFE0F2C4FF0010508D838B996
:100E70004FF0FF3021460022002500F031F8746069
:100E8000284670BD82B041F21800C4F20200016829
:100E900041F001010160016801F001010191019936
:100EA000416841F080514160406800F080500090FE
:100EB000009802B070470000002848BF7047C1B2D8
:100EC00000F01F00012202FA00F04EF20012CEF2F2
:100ED000000242EAD10121F00301086070470000DE
:100EE00010B54EF60C5CCEF2000CDCF80030C3F30B
:100EF000022E8EF00704042C28BF0424BEF1030345
:100F00004FF0FF3E0EFA04F438BF0023A14399408E
:100F10000EFA03F39A43114300F00F0200F160430D
:100F20000901043A03F564436244002848BF02F112
:100F30000C03197010BD00004EF60C51CEF20001EA
:100F40000A684FF6FF031A4060F30A2242F08060FD
:100F500040F0FD700860704790FAA0F08021B0FA70
:100F600080F0C4F20E21002241F8202070470000DA
:100F70002020C4F20E2001210160704790FAA0F0F9
:100F80008021B0FA80F0C4F20E21012241F8202025
:100F90007047000047F20000C4F20000016841F011
:100FA000020101604EF61050CEF20000016841F0DF
:100FB0000401016030BF704780B5022820D00128AD
:100FC0001CD141F20000C4F20200016A40F2023278
:100FD0000A40B2F5817F04BF4FF4004080BD01F4A8
:100FE0004071B1F5407F1BD0B1F5007F06D1406A5A
:100FF00049F64041800701EAE07080BD002080BDD5
:1010000000F048F941F20001C4F2020149680222ED
:10101000C1F3813102EB4101B0FBF1F080BD00BFB3
:1010200000684FF22441800301EAE07080BD0000B7
:101030002DE9F04182B004460078C0074ED041F25D
:101040001C06C4F20206306810F0805808D13068DF
:1010500040F080503060306800F08050019001987E
:1010600047F20007C4F200073868C00512D4386898
:1010700040F480703860FFF7C1FE05463868C0054F
:1010800008D4FFF7BBFE401B6428F7D9032002B049
:10109000BDE8F081706810F4407012D0616801F40E
:1010A000407188420DD0706840F24042C4F2422242
:1010B000012320F4407113600023C00713607160A6
:1010C00024D17068616820F440700843B8F1000FC3
:1010D000706003D1306820F0805030602078800745
:1010E00004D4002002B0BDE8F08100BF41F21C0032
:1010F000C4F2020050F8181CA26821F440411143C8
:1011000040F8181C002002B0BDE8F081FFF776FE21
:10111000054641F2883700BF70688007D1D4FFF7D9
:101120006DFE401BB8424FF00300F5D9EBE700001D
:10113000F0B581B020B30446006841F2040681078F
:10114000C4F2020611D5410703D5316841F4E061CC
:101150003160010703D5316841F460513160316875
:10116000A26821F0F00111433160C10731D06068FD
:10117000022809D0012825D156F8041C890307D478
:10118000012001B0F0BD00BF56F8041C8901F7D55D
:10119000316821F0030108433060FFF72FFE054658
:1011A00041F288373068616800F00C00B0EB810FC5
:1011B0000ED0FFF723FE401BB842F3D9032001B045
:1011C000F0BD00BF56F8041C8907D9D5E0E700BF81
:1011D0002068410705D53168E26821F4E0611143D8
:1011E0003160000706D53068216920F4605040EA7C
:1011F000C1003060326802F00C00082841F2002083
:10120000C0F27A0019D144F2C603C2F38341C0F69A
:101210000003595CD20305D440F60010C0F23D0033
:1012200048430AE0B26A44F2D60302F00F02C0F665
:1012300000039A5C4843B0FBF2F0316844F2AE021E
:10124000C1F30311C0F60002515C40F2080220FA1B
:1012500001F140F20400C2F200000068C2F2000294
:101260001160FFF7EBFD002001B0F0BD40F2080077
:1012700041F20401C2F20000C4F2020100680968F0
:1012800044F2BE02C1F30221C0F60002515CC84024
:101290007047000040F2080041F20401C2F2000071
:1012A000C4F202010068096844F2BE02C1F3C2211F
:1012B000C0F60002515CC840704700002DE9F041C3
:1012C00082B0002868D00446007841F20006C007CA
:1012D000C4F2020625D0706800F00C0004281BD070
:1012E000706800F00C00082802D17068C00313D4A5
:1012F0006068002800F06881B0F5A02F00F07C81C4
:10130000B0F5803F00F07C81306820F480303060A0
:10131000306820F4802076E13068800301D5606871
:10132000D0B32078800718D5706810F00C0F07D064
:10133000706800F00C0008286ED17068C0036BD490
:101340003068800702D52069012825D1306861699D
:1013500020F0F80040EAC1003060207800071FD478
:101360002078400732D4E56995B1706800F00C0030
:10137000082840F08F80012D0ED07068216A00F49B
:1013800080328A4208D1616A00F47010884203D129
:10139000002002B0BDE8F081012002B0BDE8F0817C
:1013A000A069002862D00020C4F242200121C0F8C8
:1013B0008014FFF723FD0546706A800700F18C80DA
:1013C000FFF71CFD401B0228F6D92AE1F06910F056
:1013D000805808D1F06940F08050F061F06900F069
:1013E00080500090009847F20007C4F20007386868
:1013F000C00529D4386840F480703860FFF7FEFCDF
:10140000054600BF3868C0051ED4FFF7F7FC401B37
:101410006428F7D905E100BF2069002840F20000E8
:10142000C4F2422000F0828001210160FFF7E6FC57
:10143000054600BF306880073FF588AFFFF7DEFC48
:10144000401B0228F6D9ECE0E068002800F080801C
:10145000052800F09780012800F09880306A20F07D
:1014600001003062306A20F0040092E00020C4F2F3
:1014700042200021C0F88014FFF7C0FC054600BFE1
:10148000706A80077FF56CAFFFF7B8FC401B02283D
:10149000F6D9C6E00027C4F2422700203866FFF7DD
:1014A000ADFC022D05460BD13068800140F1BE80B5
:1014B000FFF7A4FC401B02284FF00300F4D968E7B3
:1014C000306880017FF564AFFFF798FC401B02286D
:1014D0004FF00300F4D95CE740F20800C2F20000CC
:1014E000006844F6D351C1F26201A0FB0101480A31
:1014F000019000BF00BF0198411E002801913FF4F8
:101500002FAF00BF0198411E002801913FF428AF82
:1015100000BF0198411E002801913FF421AF00BF98
:101520000198411E00280191E4D119E700210160D2
:10153000FFF764FC054600BF306880077FF50DAFFC
:10154000FFF75CFC401B02284FF00300F4D920E7B2
:10155000306A20F001003062306A20F0040030620E
:10156000FFF74CFC054641F2883700BF306A800720
:1015700020D5FFF743FC401BB8424FF00300F5D9DC
:1015800007E700BF306A40F004003062306A40F084
:1015900001003062FFF732FC054641F2883700BF98
:1015A000306A800706D4FFF729FC401BB842F7D900
:1015B00037E000BFB8F1000F7FF4D5AEF06920F03E
:1015C0008050F061CFE600BF306820F4803030609A
:1015D000306820F480203060FFF710FC054600BF23
:1015E000306880037FF59DAEFFF708FC401B642840
:1015F0004FF00300F4D9CCE6306840F4802030602E
:10160000306840F480303060FFF7F8FB054600BFDB
:10161000306880033FF585AEFFF7F0FB401B642880
:10162000F6D9032002B0BDE8F08100BF206AB0F512
:10163000803F05D1F16AA26821F00F011143F162E8
:101640007168626A21F474111143084370600120CB
:101650003866FFF7D3FB0446306880013FF598AE4B
:10166000FFF7CCFB001B02284FF00300F4D990E6F3
:1016700070B500286AD00446407C20B90020207450
:10168000204600F073F8022060742068416821F061
:1016900008014160FFF7B2FB064600BF20684568BD
:1016A000FFF7ACFB290705460ED4A81BB0F57A7FDF
:1016B000F4D9012504206074284670BDFFF79EFB15
:1016C000401BB0F57A7FF4D8216848688006F5D5CC
:1016D000486846F62C4240F0100048604868C4F262
:1016E000000220F007004860A06818B1536823F09A
:1016F00001035360136823F460731843106060683B
:10170000421C06D101200125FFF756FC50B3216889
:1017100001388A6822F00F0242EA10428A60CA68E1
:1017200060F30F02CA60486820F010004860FFF7BD
:1017300065FB054620684068800609D4FFF75EFB1C
:10174000401BB0F57A7FF5D9B3E700BF012070BD2B
:1017500040F201100025A4F80D000120E57360742B
:10176000284670BD04206074284670BD80B582B0E4
:10177000006842F60001C4F20001884202D002B0C3
:1017800080BD00BFFFF7F4FB41F21C00C4F2020071
:10179000016841F0006101600068012100F0006013
:1017A0000190019840F23C40C4F24220016002B036
:1017B00080BD0000F0B581B0044600284FF0010064
:1017C00018BF002902D101B0F0BD00BF207C012864
:1017D0004FF00200F7D0012323746074CB78BAB1C4
:1017E000180900EB800003F00F0202EB4003487879
:1017F0008A78070907EB870700F00F0000EB47071F
:10180000100900EB800002F00F0202EB400001E043
:101810004F788878022FDAB2E3736773A0730FD81A
:1018200017237B4348F63967C3F6E307A3FB073763
:10183000C7F3470C02F2CF7340F2D47E0CE000BF36
:1018400047F2D916FFB2C0F21406774302F5FA63E5
:101850004FEAD74C40F2D27EC0B210449D0841F20C
:101860007B4770446F431D0940F63E2600EB930012
:101870007543A0EB574000EB1540604482B242F242
:1018800093435A43A0EB12439BB25B0803EB124213
:101890009208A2EBC202104422682073087091697A
:1018A000D0699369002683EA01073F041CBFD06911
:1018B000194680B240EA014045F69071C0F201013C
:1018C00088421BD344F20751CCF22E21A0FB011217
:1018D000110C40F2A3225143A0EBC117FFF78EFA7F
:1018E000054600BF2068416889060DD4FFF786FAD7
:1018F000401BB0F57A7FF5D920E000BF0121002020
:101900006174267401B0F0BD416841F0100141607E
:10191000390C8161B9B2C161416821F010014160A7
:10192000FFF76CFA054600BF2068416889060BD4B2
:10193000FFF764FA401BB0F57A7FF5D90120042146
:101940006174267401B0F0BD016A406A80B240EA59
:101950000140B84230D200F5803000F5A347FFF7D0
:101960004DFA054620684168890607D4FFF746FA14
:10197000401BB0F57A7FF5D9E0E700BF416841F040
:1019800010014160390C0162B9B24162416821F035
:1019900010014160FFF732FA054620684068800672
:1019A0000AD4FFF72BFA411B0120B1F57A7F4FF0E3
:1019B0000401F2D9A4E700BF00200121617426745C
:1019C00001B0F0BD70B5044600284FF0010018BF0B
:1019D000002901D170BD00BF207C01284FF002001A
:1019E00008BF70BD012323746074087802B3020934
:1019F00002EB820200F00F0000EB4200C0B24FF495
:101A0000616250434A788978130903EB830302F03B
:101A10000F0202EB4302D2B2C2EB021200EB8200D1
:101A20000A0902EB820201F00F0101EB420108E01A
:101A30004FF4616250434A788978C2EB021200EB9E
:101A40008200C9B24618FFF7D9F9054620684168F7
:101A5000890607D4FFF7D2F9401BB0F57A7FF5D994
:101A60001AE000BF416841F010014160310C816112
:101A7000B1B2C161416821F010014160FFF7BEF9C8
:101A8000054600BF2068416889060BD4FFF7B6F908
:101A9000401BB0F57A7FF5D9012004216174002143
:101AA000217470BD416821F005014160016A406AFE
:101AB00080B240EA0140B0422ED200F5803000F5FD
:101AC000A346FFF79BF9054620684168890607D4BD
:101AD000FFF794F9401BB0F57A7FF5D9DCE700BF3A
:101AE000416841F010014160310C0162B1B24162C4
:101AF000416821F010014160FFF780F9054600BF01
:101B000020684068800607D4FFF778F9401BB0F5DD
:101B10007A7FF5D9C0E700BF002001216174002160
:101B2000217470BD411E0020B0EB116F1CBF01205D
:101B300070474EF21002CEF2000251604EF6235171
:101B4000CEF20001F0230B70072190601160704706
:101B5000704700007047000010B590F83C20012A43
:101B60004FF0020238D080F83D200268D2F804E03D
:101B7000D2F808C00C682EF07003234340F2FF74C3
:101B8000C4F20004A242536012DD40F60003C4F226
:101B900000039A4215D044F20003C4F201039A42B2
:101BA0000FD042F60043C4F201039A4209D00DE07F
:101BB000B2F1804F05D040F20043C4F200039A42D4
:101BC00004D149682CF0800319439160012100225F
:101BD00080F83D1080F83C20104610BD002804BF5E
:101BE0000120704710B5044690F83D0028B9002048
:101BF00084F83C00204600F093F8022084F83D0071
:101C0000206840F2FF720168C4F2000290421DDCBD
:101C1000B0F1804F26D040F20042C4F20002904260
:101C200020D042F6FF32C4F20102904224DD44F299
:101C3000FF32C4F2010290422EDC42F60042C4F2AE
:101C40000102904234D044F200022DE042F60042FC
:101C5000C4F20102904205D040F60002C4F2000234
:101C60009042DED1A26821F07001114342F6FF32AA
:101C7000C4F201029042DADCB0F1804F18D040F299
:101C80000042C4F20002904212D040F60002C4F2B8
:101C9000000290420CD00FE044F60002C4F20102B0
:101CA000904205D044F20042C4F20102904203D1B6
:101CB000226921F440711143A36921F08001194385
:101CC000D4F804C0E2680160A0F18041A1F596312A
:101CD0004FEAB1210729C262C0F828C007D8012203
:101CE00002FA01F111F0E10F1CBF616901630121EA
:101CF0004161002084F8461084F83E1084F83F10BB
:101D000084F8401084F8411084F8421084F843109D
:101D100084F8441084F8451084F83D1010BD00008C
:101D200010B582B0006840F20041C4F20001884260
:101D300014D0B0F1804F2BD141F21C00C4F202004C
:101D40000168002241F0010101600068012100F0FA
:101D50000100019001981C201C2410E041F21C009D
:101D6000C4F202000168002241F002010160006833
:101D7000002100F00200009000981D201D24FFF7B4
:101D8000AFF8204602B0BDE81040FFF795B800BF9D
:101D900002B010BD90F83D1001291CBF0120704712
:101DA000022180F83D10006840F2FF72C168C4F261
:101DB0000002904241F00101C16013DD40F60001D4
:101DC000C4F20001884216D044F20001C4F20101BD
:101DD000884210D042F60041C4F2010188420AD084
:101DE00010E000BFB0F1804F05D040F20041C4F2D6
:101DF0000001884206D1816801F00701062904BF6D
:101E000000207047016841F0010101600020704727
:101E100080B590F83C20012A4FF0020200F0BF800C
:101E200080F83D20D0F800C04FF67772DCF808301B
:101E300023EA0202CCF808200B683F2B1CDD5F2B45
:101E400020DD602B50D0B3F5005F6DD0702B40F0DB
:101E5000A080D1E901E3C968DCF8082043EA0E0359
:101E600022F47F4243EA01211143CCF80810DCF848
:101E7000081041F077018AE01F2B29DC63B3102B97
:101E80002AD086E0402B63D0502B40F08280D1F8DE
:101E900004E0C968DCF82030DCF8202022F00102E0
:101EA000CCF82020DCF8182022F0F00242EA0111E0
:101EB00023F00A0242EA0E02CCF81810CCF82020D7
:101EC000DCF8081041F0570121F020015FE000BF6D
:101ED000202B01D0302B5CD1DCF8081021F07001F0
:101EE000194341F0070152E0D1F804E0C968DCF879
:101EF000203023F01003CCF82030DCF81830DCF868
:101F0000202023F4704322F0A00243EA013142EA88
:101F10000E12CCF81810CCF82020DCF8081041F094
:101F2000670121F0100132E0D1E901E3C968DCF872
:101F3000082043EA0E0322F47F4243EA01211143C1
:101F4000CCF80810DCF8081041F480411FE000BF15
:101F5000D1F804E0C968DCF82030DCF8202022F059
:101F60000102CCF82020DCF8182022F0F00242EA2E
:101F7000011123F00A0242EA0E02CCF81810CCF844
:101F80002020DCF8081041F0470121F03001CCF8A6
:101F900008100121002280F83D1080F83C201046F6
:101FA00080BD00007047000010B501680446086954
:101FB000800744BFC8685FEA807039D40869400769
:101FC00044BFC8685FEA40703ED40869000744BF58
:101FD000C8685FEA007045D40869C00644BFC86895
:101FE0005FEAC0604AD40869C0071CBFC8685FEADE
:101FF000C07051D10869000644BFC8685FEA00603C
:1020000052D40869400644BFC8685FEA406053D4B0
:102010000869800646BFC8685FEA806010BD6FF03F
:10202000200220460A61BDE81040FFF793BD00BFC3
:102030006FF002000861012020778869800743D093
:102040002046FFF7AFFF45E06FF004000861022073
:102050002077886910F4407F40D02046FFF7A2FF28
:1020600042E000BF6FF00800086104202077C869D3
:1020700080073DD02046FFF795FF3FE06FF010004E
:10208000086108202077C86910F4407F3AD02046C4
:10209000FFF788FF3CE000BF6FF0010008612046B9
:1020A00000F03EF82168A5E76FF080000861204647
:1020B000FFF74EFD2168A4E76FF04000086120465D
:1020C00000F03CF82168A3E7204600F025F8204600
:1020D00000F024F82168002020776FE7204600F008
:1020E0001BF8204600F01AF82168002020776CE7E2
:1020F000204600F011F8204600F010F8216800207A
:10210000207769E7204600F007F8204600F006F83F
:1021100021680020207766E77047000070470000C4
:1021200080B500F081FA41F20000C4F201004FF4E2
:102130000051BDE88040FEF753BE0000704700002C
:10214000002804BF0120704710B5044690F83D00F8
:1021500028B9002084F83C00204600F021F8242013
:1021600084F83D002068C16821F40051C160204618
:1021700000F034FD2068016921F49041016141695A
:1021800021F02A014161C16841F40051C160002081
:102190002021206484F83D1084F83E1010BD00001A
:1021A00070B586B040F60004C4F20104006804F57E
:1021B000405100268842049602D006B070BD00BF90
:1021C00041F21800C4F20200016802AD41F48041FE
:1021D0000160016801F4804101910199016841F0B9
:1021E000040101600068294600F004000190019894
:1021F0004FF40070029002200390032005902046C7
:10220000FEF7DAFC4FF48060CDE90206204629464D
:102210000496FEF7D1FC06B070BD00002DE9F04138
:10222000044690F83D0020280ED10D4600294FF0BD
:10223000010000F08E801646002A08BFBDE8F0813C
:1022400094F83C00012803D10220BDE8F08100BFD2
:10225000012084F83C00002020642120984684F866
:102260003D00FEF7CBFDA684E684A1680646B1F5E5
:10227000805F03D12069002800F0A0802F46002550
:10228000002084F83C00E08CE0B118F101001BD084
:10229000B8F1000F60D120680BE000BF35F8021BD9
:1022A00000276FF35F214160E18C0139E184E18C0B
:1022B00051B3016809066DD5002FEFD017F8011B47
:1022C000F1E700BF20681FE0206802E0016809060E
:1022D00009D40168090606D4016809065CBF0168D3
:1022E0005FEA0161F2D51FB117F8011B05E000BFDD
:1022F00035F8021B00276FF35F214160E18C013943
:10230000E184E18C0029E4D1016849061DD4B8F1CB
:10231000000F3FD018F101010ED10168490614D415
:10232000016849065CBF01685FEA41610DD401683C
:102330004906F2D509E000BFFEF760FD811B206869
:10234000414527D800684006F6D5202084F83D0096
:102350000020BDE8F08100BF206800BF01680906C9
:1023600006D4FEF74BFD811B20684145F6D911E0EC
:1023700017B117F8011B04E035F8021B00276FF3B3
:102380005F214160E18C0139E184E18C0029E5D1D4
:10239000BAE700BFC16821F4D071C160416921F082
:1023A00001014161202084F83D0084F83E000020B6
:1023B00084F83C000320BDE8F08100BF00275FE700
:1023C000F0B58FB040F2B814C2F20004207840F2A9
:1023D00070070128C2F200070AD140F2E000C2F201
:1023E000000008300021012201F05EFD55E000BF31
:1023F00040F28800C2F2000030A12D224FF0FF33DE
:10240000FFF70CFF207802280BD140F28800C2F2BF
:10241000000036A132224FF0FF33FFF7FFFE00F03D
:102420008DFA40F2E006C2F20006D6E90232022B33
:1024300000D30AB1012A39D1581E0346B06075682D
:1024400044F2F9210DF10904C0F60001204600957F
:10245000FDF7D8FE2046FDF759FF82B240F2880012
:10246000C2F2000021464FF0FF33FFF7D7FEB068FD
:1024700040B9F168012905D10520B06000F04EF99E
:1024800004E000BF002818BF00F048F900244FF412
:102490007A703460FEF7A0F93C704FF4FA70FEF7E2
:1024A0009BF9002038700FB0F0BD00BF012BC6D1E2
:1024B00070680028C3D0002ABFD0C0E748616E64AE
:1024C0006C655F4261636B5F427574746F6E5F45EC
:1024D00076656E74202D202169735F7265636F725B
:1024E00064202020202020202000000048616E640D
:1024F0006C655F4261636B5F427574746F6E5F45BC
:1025000076656E74202D20656E7465722053746F2D
:10251000705F706C61792020202020202020000036
:10252000B0B540F28800C2F2000027A128224FF087
:10253000FF33FFF773FE40F2B814C2F200042078B4
:1025400001280BD140F28800C2F2000029A13222FA
:102550004FF0FF33FFF762FE00F074FA40F2E0053F
:10256000C2F20005A86828B12078022816D100F030
:10257000E5F922E040F2880044F2DA11C2F20000EC
:10258000C0F6000132224FF0FF33FFF747FE002074
:1025900028604FF47A70FEF71FF90EE040F28800D1
:1025A00044F22D21C2F20000C0F6000132224FF0A9
:1025B000FF33FFF733FE00F0B1F840F27000C2F2D3
:1025C000000000210170B0BD48616E646C655F5011
:1025D0006C61795F427574746F6E5F4576656E7479
:1025E000202D207374745F706C617920202020206E
:1025F0000000000048616E646C655F506C61795F3B
:10260000427574746F6E5F4576656E74202D20651B
:102610006E7465722053746F705F7265636F72645D
:102620002020202020200000F0B581B040F288005A
:10263000C2F2000025A102224FF0FF33FFF7EEFDAA
:1026400040F2E005C2F20005A86801F005FC298807
:1026500004463B299CBF01312980688840F2B817A5
:10266000C2084A2A9CBF01306880C2F2000738784D
:1026700040F270063C29C2F2000608BF012805D0CE
:102680008C4208BF022813D001B0F0BD40F2880090
:10269000C2F200000EA11A224FF0FF33FFF7BEFD79
:1026A00029883878012232708C4208BF0228EBD189
:1026B00040F28800C2F200000CA11A224FF0FF3352
:1026C000FFF7ACFD0320307001B0F0BD6869000079
:1026D00054696D65206F75742D2073746F7020724E
:1026E00065636F72642020202020000054696D65AE
:1026F000206F75742D2073746F7020706C61792059
:102700002020202000000000FEE70000FEE700007F
:10271000FEE7000070470000704700002DE9F0431D
:1027200081B040F2880040F60008C2F200003CA1EF
:102730001E224FF0FF33C4F20108FFF76FFD40F295
:10274000E800C2F200000468404602210122FEF7C0
:102750004FFB4FF4FA70FEF73FF8601EC7B244F229
:10276000900444F2A409042FC0F60004C0F6000946
:102770001CD840F2880654F82710C2F2000639F837
:10278000175030460F224FF0FF33FFF747FD40460A
:1027900029460022FEF72CFB44F2EB01C0F60001B3
:1027A000304606224FF0FF33FFF738FD6420FEF776
:1027B00013F8042F1CD840F2880654F82710C2F2F0
:1027C000000639F8175030460F224FF0FF33FFF75D
:1027D00025FD404629460122FEF70AFB44F2F2019C
:1027E000C0F60001304606224FF0FF33FFF716FD1A
:1027F00040F2E000C2F200000021018040F2E2005D
:10280000C2F20000018040F2B811C2F200010222BF
:102810004FF47A700A7001B0BDE8F043FDF7DCBFF9
:10282000456E7465722053746172745F706C617967
:10283000202D20524543203D312020202020000023
:10284000F0B581B040F28805C2F2000540F6000400
:102850002DA1284615224FF0FF33C4F20104FFF7E3
:10286000DDFC2046022100220027FEF7C1FA2CA140
:10287000284619224FF0FF33FFF7D0FC40F2E40066
:10288000C2F200000068C1B2042925D8000644F253
:1028900090028115C0F60002515844F2A40240F2A1
:1028A0008806C015C0F60002C2F20006155A30466E
:1028B0000F224FF0FF33FFF7B1FC204629460022DC
:1028C000FEF796FA44F2EB01C0F60001304606220C
:1028D0004FF0FF33FFF7A2FC40F2E000C2F200002D
:1028E000078040F2E20040F2B811C2F20000C2F2EA
:1028F0000001012207804FF47A700A7001B0BDE830
:10290000F040FDF769BF00BF456E746572205374D7
:102910006172745F7265636F726420202000000032
:1029200053746172745F7265636F7264202D2052FC
:102930004543203D20302020200000002DE9F043B9
:1029400081B040F2880040F60008C2F2000037A1D2
:1029500016224FF0FF33C4F20108FFF75FFC40F28C
:10296000E800C2F20000006844F290040138C7B2E7
:1029700044F2A409042FC0F60004C0F600091CD8D4
:1029800040F2880654F82710C2F2000639F81750B2
:1029900030460F224FF0FF33FFF740FC40462946F8
:1029A0000022FEF725FA44F2EB01C0F600013046A2
:1029B00006224FF0FF33FFF731FC0A20FDF70CFF32
:1029C000042F1CD840F2880654F82710C2F20006E3
:1029D00039F8175030460F224FF0FF33FFF71EFC37
:1029E000404629460122FEF703FA44F2F201C0F6FE
:1029F0000001304606224FF0FF33FFF70FFC40F294
:102A0000B810C2F200000021017040F2E00040F274
:102A1000E202C2F20000C2F2000201800A2011802C
:102A200001B0BDE8F043FDF7D7BE00BF456E746549
:102A3000722053746F705F706C61792020202020A9
:102A4000200000002DE9F04196B040F2E404C2F20B
:102A500000042068C1B2042929D8000644F290027B
:102A60008115C0F60002515844F2A40240F28806D3
:102A7000C015C0F60002C2F20006155A30460F22F9
:102A80004FF0FF33FFF7CAFB40F60000C4F201002D
:102A900029460122FEF7ACF944F2F201C0F600012A
:102AA000304606224FF0FF33FFF7B8FB206800F0F6
:102AB0000BF9206840F2E8060130C2F2000640F24D
:102AC000EC0840F2880544F2D01730600528C2F2C5
:102AD000000804BF0120C8F80000C2F20005C0F6DB
:102AE00000072846394609224FF0FF33FFF796FBCF
:102AF00020680130411F18BF014640F2B810216024
:102B0000C2F200000021017040F2E000C2F20000B9
:102B1000018040F2E200C2F2000001800A20FDF7CD
:102B20005BFE20460121012201F0BEF90A20FDF7DB
:102B300053FE40460321012201F0B6F90A20FDF7B9
:102B40004BFE30460021012201F0AEF928463946FD
:102B500009224FF0FF33FFF761FB32682368D8F892
:102B6000007002AC08A120460097FDF74BFB204601
:102B7000FDF7CCFB82B2284621464FF0FF33FFF72A
:102B80004DFB16B0BDE8F0810A207374745F706C61
:102B90006179203D2025642C2070696E5F636F6E23
:102BA00074726F6C203D25642C2066756C6C5F72AE
:102BB00065636F7264203D2025640000FEF724B930
:102BC0007047000040F20410C2F20000FFF7ECB9B9
:102BD00040F24C10C2F20000FFF7E6B910B504460F
:102BE0000068D4E902C22369016921F4405111430C
:102BF0000161626943EA0C01E3691143C268194348
:102C000049F20C639A431143C1604169A26921F4FE
:102C10004071114343F60002C4F201029042416147
:102C200002D0FEF723FB01E0FEF734FBE2696168A6
:102C30001923B2F5004F03FB00F023D14900B0FB8C
:102C4000F1F048F21F51C5F2EB11A0FB01235A0924
:102C50004FF69C73C0F6FF7303F1805302FB030031
:102C6000322303EBC000A0FB01014FF4F87000EA2F
:102C7000111000EB0210C1F3421108442168886072
:102C800010BD00BF8900B0FBF1F048F21F51C5F242
:102C9000EB11A0FB01235A094FF69C73C0F6FF739A
:102CA00002FB0300322303EB0010A0FB0101F02024
:102CB00000EA511000EB0210C1F3431108442168EF
:102CC000886010BDFEE70000F0B5A7B040F2CC056B
:102CD00040F2E00704460428C2F20005C2F20007F1
:102CE00032D8DFE804F0030B151F290038880421CF
:102CF00028602846012201F0D7F825E039882846C7
:102D000040F8041F0521012201F0CEF81CE000BFAD
:102D10003988284640F8081F0621012201F0C4F82E
:102D200012E000BF3988284640F80C1F0721012215
:102D300001F0BAF808E000BF3988284640F8101FB3
:102D40000821012201F0B0F8D5E9003005F10806AC
:102D500046CE3F888DE8070044F249110DF1150574
:102D6000C0F600012846224604970396FDF74AFA6A
:102D70002846FDF7CBFA82B240F28800C2F200008A
:102D800029464FF0FF33FFF749FA27B0F0BD0000A6
:102D90002DE9F04F83B018B1012003B0BDE8F08FEA
:102DA00040F6000BC4F2010B58462021FEF712F842
:102DB0000028F1D0002400BF0134FDF7D7FB5846AE
:102DC0002021FEF707F80028F6D1472CE4D300BFF6
:102DD00058462021FDF7FEFF0028F9D04EF21007DB
:102DE0004FF00008CEF200074FF47A764FF000451E
:102DF000002407E025FA08F0844308F10108B8F13F
:102E0000200F59D058462021FDF7E4FF0028F9D1C2
:102E100058462021FDF7DEFF0028EBD100944FF04B
:102E2000000904E058462021FDF7D4FFB0BB386804
:102E3000FDF7E4FF7968BA684C1CA11A0191396862
:102E4000C90301D4054605E0FDF7D8FFB96805467A
:102E5000601A0190019809F101097043B0FBF4FA7E
:102E60000BE000BF0299401B7143B1FBF4F1A1EBF1
:102E70000A0100FB06106428D4D23868FDF7BEFFB3
:102E80007968BA684C1CA11A02913968C903E9D55E
:102E9000FDF7B4FFB968611A0291E3E7009CB9F14C
:102EA0000D0F4FF00045A5D325FA08F0044308F1B3
:102EB0000108B8F1200FA5D140F20010C2F20000C5
:102EC0000460FDF753FB002003B0BDE8F08F000065
:102ED00040F20010C2F200000068704710B50138DF
:102EE000032888BF10BDDFE800F00349374500BF65
:102EF00040F28800C2F2000038A10C224FF0FF33EC
:102F0000FFF78CF940F2B814C2F2000420780228CE
:102F10000FD140F2880044F26021C2F20000C0F6F6
:102F2000000132224FF0FF33FFF778F9FFF706FD7B
:102F30002078012830D140F2880044F29321C2F277
:102F40000000C0F6000132224FF0FF33FFF766F9B0
:102F5000FFF778FD2FE000BF40F28800C2F20000CA
:102F600018A10A224FF0FF33FFF758F9BDE81040CF
:102F7000FFF7D6BABDE81040FDF74EBB40F288001F
:102F8000C2F2000012A10A224FF0FF33FFF746F908
:102F9000BDE81040FFF714BA40F2880044F2C621A1
:102FA000C2F20000C0F6000132224FF0FF33FFF7FB
:102FB00035F9FFF745FC40F27000C2F20000002135
:102FC000017010BD504C41595F4556454E540000AC
:102FD0004241434B5F4556454E5400005245434FD6
:102FE00052445F4556454E54000000002DE9F04F15
:102FF000ADF2444D0DF140094FF6100809F10800FB
:103000004FF47E71C0F60008FDF7D1F940F2880058
:10301000C2F2000077A111224FF0FF33FFF7FEF854
:10302000D8F800601096D8F804104FEA164BB0B2EA
:103030005845119116D1FDF7C1FC40F2F000C2F2E3
:103040000000002101600121C0E9028101A9FDF712
:10305000D7FB18B3FDF74CFC00200DF2444DBDE842
:10306000F08F00BFB6F5803FC0F08F80002800F0E1
:103070008C8040F28800C2F2000063A112224FF05F
:10308000FF33FFF7CBF8701C80B2B11C032801F0AE
:10309000030C13D210A9424627E000BF022041468C
:1030A00000220023FDF734FC002800F08D80FDF79E
:1030B0001FFC00200DF2444DBDE8F08F4FF6FC726E
:1030C00001EA020E002710A9424600BF15685468A5
:1030D0009068D3680437C1E90203B8B2C1E900546B
:1030E0001032704501F11001F0D1BCF1000F0BD08E
:1030F0001068BCF1010F086006D05068BCF1020FE7
:1031000048601CBF90688860B6F5803F28D340F2C5
:10311000880A09F104045D460FF2001901AFC2F2FA
:10312000000ABBF1010F98BF012500BFB6B23846B7
:10313000494632465B46FDF765F83846FDF7E6F846
:1031400082B2504639464FF0FF33FFF767F82088C8
:10315000013D00F10100A6EB000604EB8004E5D17F
:10316000B4B201AD35A128462246FDF74BF82846FA
:10317000FDF7CCF882B240F28800C2F20000294686
:103180004FF0FF33FFF74AF834B3FDF717FC40F276
:10319000F000C2F20000002101600121C0E90281BB
:1031A0000DF58861FDF72CFB30B902204146002265
:1031B0000023FDF7ADFB38B1FDF79AFB00200DF2BF
:1031C000444DBDE8F08F00BFFDF798FB00200DF2E5
:1031D000444DBDE8F08F00BFBDF8400010A901309C
:1031E00082B24046FDF7CAFA00200DF2444DBDE818
:1031F000F08F00BF696E69745F666C6173685F6DA4
:10320000656D6F7279000000696E69745F666C614C
:1032100073685F6D656D6F72793100000A206E759D
:103220006D5F64617461203D202564202C6E756D96
:103230005F626C6F636B203D256400000A206E7531
:103240006D5F64617461203D2025642000000000F2
:1032500094B0FDF7E7FD0AAC201D2421FDF7A7F887
:103260000A200A900120102100250E90CDE90F10B0
:10327000204603951195FEF721F828B1EFF3108051
:1032800072B600BFFEE700BF0F20CDE9040504A819
:103290000021CDE906550895FDF74AFF20B1EFF36F
:1032A000108072B6FEE700BF4FF400700124029058
:1032B00001A80194FDF7BCFE20B1EFF3108072B6B7
:1032C000FEE700BF41F21800C4F20200016840F6B8
:1032D000004841F0100101600168C4F2010801F0EA
:1032E00010010A910A99016808F5806741F02001F0
:1032F00001600168002201F020010A910A99016829
:103300004FF4005641F00401016001684FF00009DC
:1033100001F004010A910A99016841F00801016075
:1033200000684FF4005100F008000A900A983846EF
:10333000FDF75EFDA8F5806528464FF4FD7101227A
:10334000FDF756FD40460B210122FDF751FD404699
:103350004FF480610022FDF74BFDCDE90A640AAE0F
:103360004FF0020A38463146CDF83090CDF834A0FF
:10337000FDF722FC49F601000A900020C1F211007D
:10338000CDE90B0428463146FDF716FC4FF4857055
:10339000CDE90A0428463146CDE90C4AFDF70CFC7C
:1033A000F0200AA981E8110628463146FDF704FC01
:1033B00040463146CDE90A44CDE90C9AFDF7FCFBC5
:1033C00040F20A400A9011200BA981E8010640460C
:1033D0003146FDF7F1FB062001210022FDF780FDBB
:1033E0000620FDF769FD282001210022FDF778FD68
:1033F0002820FDF761FD40F27007C2F2000708F5D2
:103400003051384640F8181F4FF416510C22C0E9CD
:103410000119C0E90399C0E90529C0F81C90FEF71D
:103420008FFE28B1EFF3108072B600BFFEE700BF39
:1034300040F20410C2F200004FF080414FF4FA5203
:1034400040F2F31380E806028021CDF83490CDE9F4
:103450000B99CDE90499C0E903398161FEF7BEFB00
:1034600020B1EFF3108072B6FEE700BF4FF480503A
:103470000A9040F20410C2F200000AA9FEF7C8FC4C
:1034800020B1EFF3108072B6FEE700BF40F20410E7
:10349000C2F2000004A9FEF75FFB28B1EFF3108031
:1034A00072B600BFFEE700BF40F24C100021C2F22E
:1034B00000004FF4FA460D91CDE90B11CDE904114E
:1034C000A8F584324EF66023C0E90216016180211E
:1034D000C0E900238161FEF781FB28B1EFF3108082
:1034E00072B600BFFEE700BF4FF480500A9040F272
:1034F0004C10C2F200000AA9FEF78AFC20B1EFF3DB
:10350000108072B6FEE700BF40F24C10C2F200001D
:1035100004A9FEF721FB28B1EFF3108072B600BFBB
:10352000FEE700BF40F20110C0F201000A90A8F5CA
:103530006441384640F8041F4FF0FF314FF4807269
:10354000C0E90112FEF794F820B1EFF3108072B6D3
:10355000FEE700BF00203D1DADF810008DF8120001
:1035600004A928460022FEF72DFA18B1EFF31080C7
:1035700072B6FEE70AA928460022FEF71BF918B129
:10358000EFF3108072B6FEE744F2E60607F1180585
:10359000C0F600062846314604224FF0FF33FEF7FE
:1035A0003DFEFFF723FD6420FDF716F900F020F83B
:1035B0002846314604224FF0FF33FEF72FFE4046E7
:1035C0004FF480610022FDF713FC6420FDF704F93D
:1035D00040464FF480610122FDF70AFC40F20410DE
:1035E000C2F20000FEF7D6FB3878FFF777FCFBE766
:1035F0002DE9F04FADF2444D11AC04F1080B4FF63C
:10360000100758464FF47E71C0F60007FCF7CFFE56
:103610003968261D11917A68080C129267D08BB216
:103620004A1C032B02F0030C02D211AA3B4616E0FF
:103630004FF6FC7302EA0305002411AA3B4600BFC3
:103640001968043411605968516099689160D968AB
:103650001033D160A1B2A94202F11002F0D1BCF145
:10366000000F0BD01968BCF1010F116006D059682A
:10367000BCF1020F51601CBF99689160012898BF8E
:103680000120411E3046026812F47F0F92B225D00D
:1036900069B300EB820050F8042F12F47F0F92B24E
:1036A0001CD0012923D000EB820050F8042F12F423
:1036B0007F0F92B212D0022919D000EB820050F88D
:1036C000042F12F47F0F92B208D000EB820004396D
:1036D0004A1C00F10400D6D109E000BF3AB1011D37
:1036E00040F2E8009200C2F20000FCF72EFE0A2031
:1036F000FDF772F858464FF47E71FCF758FE3968B2
:1037000011917A68080C12926FD08BB24A1C032B6D
:1037100002F0030C02D211AA3B4616E04FF6FC73EE
:1037200002EA0305002411AA3B4600BF19680434CD
:1037300011605968516099689160D9681033D160FF
:10374000A1B2A94202F11002F0D1BCF1000F0BD0DE
:103750001968BCF1010F116006D05968BCF1020F65
:1037600051601CBF99689160012898BF0120411EDB
:103770003046026802F47F03B3F5803F92B22BD04B
:1037800099B300EB820050F8042F02F47F03B3F5E5
:10379000803F92B220D0012927D000EB820050F860
:1037A000042F02F47F03B3F5803F92B214D00229B4
:1037B0001BD000EB820050F8042F02F47F03B3F516
:1037C000803F92B208D000EB820004394A1C00F11D
:1037D0000400CED109E000BF3AB1011D40F2E4007F
:1037E0009200C2F20000FCF7B0FD40F2E80940F29E
:1037F000E4080A20C2F20009C2F20008FCF7ECFF5C
:1038000058464FF47E71FCF7D2FD396840F2EC0A5D
:1038100011917868C2F2000A1290080C6FD08BB236
:103820004A1C032B02F0030C02D211AA3B4616E0FD
:103830004FF6FC7302EA0305002411AA3B4600BFC1
:103840001968043411605968516099689160D968A9
:103850001033D160A1B2A94202F11002F0D1BCF143
:10386000000F0BD01968BCF1010F116006D0596828
:10387000BCF1020F51601CBF99689160012898BF8C
:103880000120411E3046026802F47F03B3F5403F39
:1038900092B22BD099B300EB820050F8042F02F4BF
:1038A0007F03B3F5403F92B220D0012927D000EB2F
:1038B000820050F8042F02F47F03B3F5403F92B228
:1038C00014D002291BD000EB820050F8042F02F420
:1038D0007F03B3F5403F92B208D000EB8200043979
:1038E0004A1C00F10400CED109E000BF3AB1011D2D
:1038F00040F2EC009200C2F20000FCF726FD0A2024
:10390000FCF76AFFD9F80020D8F80030DAF8004058
:103910000DF109050FF20C5128460094FCF772FCDA
:103920002846FCF7F3FC82B240F28800C2F20000A5
:1039300029464FF0FF33FEF771FC58464FF47E7175
:10394000FCF735FD396811917A68080C129270D035
:103950008BB24A1C032B02F0030C03D211AA3B4684
:1039600017E000BF4FF6FC7302EA0305002411AA1A
:103970003B4600BF1968043411605968516099686A
:103980009160D9681033D160A1B2A94202F110024E
:10399000F0D1BCF1000F0BD01968BCF1010F116020
:1039A00006D05968BCF1020F51601CBF9968916044
:1039B000012898BF0120411E3046026802F47F03AF
:1039C000B3F5802F92B22BD099B300EB820050F860
:1039D000042F02F47F03B3F5802F92B220D0012987
:1039E00027D000EB820050F8042F02F47F03B3F5D8
:1039F000802F92B214D002291BD000EB820050F825
:103A0000042F02F47F03B3F5802F92B208D000EBAD
:103A1000820004394A1C00F10400CED109E000BF45
:103A20003AB1011D40F2CC009200C2F20000FCF756
:103A30008CFC0A20FCF7D0FE58464FF47E71FCF750
:103A4000B6FC396811917A68080C12926FD08BB26B
:103A50004A1C032B02F0030C02D211AA3B4616E0CB
:103A60004FF6FC7302EA0305002411AA3B4600BF8F
:103A70001968043411605968516099689160D96877
:103A80001033D160A1B2A94202F11002F0D1BCF111
:103A9000000F0BD01968BCF1010F116006D05968F6
:103AA000BCF1020F51601CBF99689160012898BF5A
:103AB0000120411E3046026802F47F03B3F5A02FB7
:103AC00092B22BD099B300EB820050F8042F02F48D
:103AD0007F03B3F5A02F92B220D0012927D000EBAD
:103AE000820050F8042F02F47F03B3F5A02F92B2A6
:103AF00014D002291BD000EB820050F8042F02F4EE
:103B00007F03B3F5A02F92B208D000EB82000439F6
:103B10004A1C00F10400CED109E000BF3AB1011DFA
:103B200040F2D0009200C2F20000FCF70EFC0A2026
:103B3000FCF752FE58464FF47E71FCF738FC3968AA
:103B400011917A68080C12926FD08BB24A1C032B29
:103B500002F0030C02D211AA3B4616E04FF6FC73AA
:103B600002EA0305002411AA3B4600BF1968043489
:103B700011605968516099689160D9681033D160BB
:103B8000A1B2A94202F11002F0D1BCF1000F0BD09A
:103B90001968BCF1010F116006D05968BCF1020F21
:103BA00051601CBF99689160012898BF0120411E97
:103BB0003046026802F47F03B3F5C02F92B22BD0D7
:103BC00099B300EB820050F8042F02F47F03B3F5A1
:103BD000C02F92B220D0012927D000EB820050F8EC
:103BE000042F02F47F03B3F5C02F92B214D0022940
:103BF0001BD000EB820050F8042F02F47F03B3F5D2
:103C0000C02F92B208D000EB820004394A1C00F1A8
:103C10000400CED109E000BF3AB1011D40F2D4004A
:103C20009200C2F20000FCF790FB0A20FCF7D4FDE2
:103C300058464FF47E71FCF7BAFB396811917A68E7
:103C4000080C12926FD08BB24A1C032B02F0030CAB
:103C500002D211AA3B4616E04FF6FC7302EA0305B6
:103C6000002411AA3B4600BF19680434116059684A
:103C7000516099689160D9681033D160A1B2A942AE
:103C800002F11002F0D1BCF1000F0BD01968BCF1A9
:103C9000010F116006D05968BCF1020F51601CBFC2
:103CA00099689160012898BF0120411E3046026842
:103CB00002F47F03B3F5E02F92B22BD099B300EB5F
:103CC000820050F8042F02F47F03B3F5E02F92B284
:103CD00020D0012927D000EB820050F8042F02F4F5
:103CE0007F03B3F5E02F92B214D002291BD000EB72
:103CF000820050F8042F02F47F03B3F5E02F92B254
:103D000008D000EB820004394A1C00F10400CED137
:103D100009E000BF3AB1011D40F2D8009200C2F2A2
:103D20000000FCF712FB0A20FCF756FD58464FF442
:103D30007E71FCF73CFB396811917A68080C12928D
:103D40005DD08BB24A1C032B02F0030102D211AAF0
:103D500015E000BF4FF6FC731340002511AA00BF09
:103D60003C68043514607C685460BC689460FC68EE
:103D70001037D460ACB29C4202F11002F0D149B1CC
:103D80003B680129136005D07B68022953601CBF82
:103D9000B9689160012898BF01200138316801F4A9
:103DA0007F02B2F5002F8AB22ED040B306EB82011B
:103DB0000E1D316801F47F02B2F5002F8AB223D0C4
:103DC00001281CD006EB82010E1D316801F47F0230
:103DD000B2F5002F8AB217D0022810D006EB82016C
:103DE0000E1D316801F47F02B2F5002F8AB20BD0AC
:103DF00006EB82010438421C01F10406CED10DF21B
:103E0000444DBDE8F08F00BF002AF8D040F2DC003E
:103E1000311D9200C2F20000FCF797FA0DF2444DFA
:103E2000BDE8F08F0A207374745F706C6179203D77
:103E30002025642C2070696E5F636F6E74726F6CE6
:103E4000203D25642C2066756C6C5F7265636F7213
:103E500064203D20256400000138042884BF002030
:103E60007047DFE800F003090F151B0040F2CC009B
:103E7000C2F200000068704740F2CC00C2F20000BD
:103E80004068704740F2CC00C2F200008068704782
:103E900040F2CC00C2F20000C068704740F2CC0093
:103EA000C2F20000006970472DE9F04FADF2044DF9
:103EB0000DF1040A0F4681460AF108004FF47E71A5
:103EC0001546FCF774FA002D00F0DD804FF6100661
:103ED000C0F6000634680AF1040C019470685FEAC9
:103EE000144802906CD004F1010B1FFA8BF1A01C56
:103EF00001AA00F0030E03293346114619D34FF6E9
:103F0000FC7108403346002601A900BF1A68043638
:103F10000A605A684A609A688A60DA681033CA6030
:103F2000B2B2824201F11001F0D14FF61006C0F694
:103F30000006BEF1000F0BD01868BEF1010F08603B
:103F400006D05868BEF1020F48601CBF98688860B0
:103F500040461FFA84FEB8F1010F98BF0120431EAE
:103F600062461068C0F30741B94281B22CD0002BE1
:103F70005CD002EB8100021D1068C0F30741B9421A
:103F800081B221D0012B51D002EB8100021D1068BB
:103F9000C0F30741B94281B216D0022B46D002EBE2
:103FA0008100021D1068C0F30741B94281B20BD0F5
:103FB00002EB8100043B591C00F10402D1D135E031
:103FC0004FF0000832E000BFA94205D1101DAA0041
:103FD0004946FCF7BAF950E0C8430EEB0004A0B222
:103FE00001AB03EB8000801AB3464FF6FF76C1EBBE
:103FF000A003012BB04418DB02EB8101002000BFBD
:1040000040F00106B6B2B3420DDD40F00206B6B292
:10401000B34208DD40F00306B6B2B34203DD04301C
:1040200086B2B342ECDC486810605E464FF6FC7026
:10403000C0F2030000EA840045EA07414CF8001092
:1040400029465044012D98BF012108308A00494675
:10405000FCF77BF92819013081B2FF2906D94FF00E
:10406000FF300DF2044DBDE8F08F00BF41EA08417A
:1040700001F5803100F1010B01911FFA8BF201A9CA
:104080003046FCF77BFB00200DF2044DBDE8F08FBD
:10409000F9400008094100081941000829410008B9
:1040A0003941000808001000200040008000000096
:1040B00000000000000001020304060708090000D8
:1040C00000000102030402030405060708090A0BA5
:1040D0000C0D0E0F10100102030405060708090A53
:1040E0000B0C0D0E0F10496E69740030202020203B
:1040F000200031202020202000436F6E74726F6CEE
:10410000202D204D30203D2000436F6E74726F6C67
:10411000202D204D31203D2000436F6E74726F6C56
:10412000202D204D32203D2000436F6E74726F6C45
:10413000202D204D33203D2000436F6E74726F6C34
:10414000202D204D34203D20000A2070696E5F63D1
:104150006F6E74726F6C5F74203D2025642C207428
:10416000696D655F7265636F72645F31203D2564C0
:104170002C2074696D655F7265636F72645F3220B5
:104180003D25642C2074696D655F7265636F726490
:104190005F33203D25642C2074696D655F72656313
:1041A0006F72645F34203D25642C2074696D655FF7
:1041B0007265636F72645F35203D2564202C7469DD
:1041C0006D655F64656661756C74203D20256400D3
:1041D000436865636B5F6C6F670048616E646C6514
:1041E0005F506C61795F427574746F6E5F45766580
:1041F0006E74202D207374745F706C6179203D2083
:1042000030202020202020202020202000696E74D3
:104210006572727570742D6261636B5F7072657325
:1042200073203D2031202020202020200048616E76
:10423000646C655F506C61795F427574746F6E5F1A
:104240004576656E74202D20656E746572205374FA
:104250006172745F706C6179202020202020200022
:1042600048616E646C655F5265636F72645F42752E
:1042700074746F6E5F4576656E74202D20656E7464
:1042800065722073746F7020706C6179202020201B
:1042900020200048616E646C655F5265636F7264D4
:1042A0005F427574746F6E5F4576656E74202D2065
:1042B000656E7465722073746F70207265636F72BF
:1042C00064202020200048616E646C655F52656345
:1042D0006F72645F427574746F6E5F4576656E745D
:1042E000202D20656E746572207374617274207263
:1042F00065636F7264202020000A2066756C6C5F15
:104300007265636F7264203D2025642C2073747481
:104310005F706C6179203D25642C2070696E5F634D
:104320006F6E74726F6C203D202564000A206576E4
:10433000656E745F696E746572757074203D2025BA
:10434000642C20737461747573203D256400000033
:104350007043000800000020100000005C0100080D
:104360008043000810000020B0070000780100081A
:1043700001000000100000000024F4000000000014
:0400000508000121CD
:00000001FF
